:0400000030EF76F077
:10EC600000EE55F0280EEE6AE806FDE1000EF86EA3
:10EC7000000114EF77F00E0EC16EC198C19AC0501A
:10EC8000F00B0609C06EC086C088C08AC0507F0BDA
:10EC90008009C06EC280120001500302F3CF05F05C
:10ECA000F4CF06F001500402F3500626025003028E
:10ECB000F350062605C001F006C002F01200056EF2
:10ECC000C30EC2160550040DF350030FC216410EB9
:10ECD000036EEE0EE82EFED7032EFCD700D0C282C4
:10ECE000C2CF03F0D890033203B079EF76F07BEF18
:10ECF00076F070EF76F0410E036EEE0EE82EFED742
:10ED0000032EFCD700D0C450046E036AC350032402
:10ED1000066E000E0420076E06C001F007C002F068
:10ED2000120049344A34506E5050D8A49AEF76F00D
:10ED30009CEF76F0A6EF76F0000E476E000E486E60
:10ED4000000E496E000E4A6E13EF77F047C04BF08D
:10ED500048C04CF049C04DF04AC04EF0200EB6EF0E
:10ED600076F0D8904E324D324C324B32E82EB1EF25
:10ED700076F04B504F6E498EFF0E4716FF0E481629
:10ED8000FF0E4916000E4A16960E505E50BECDEF8D
:10ED900076F0CBEF76F0E3EF76F05050800A970FE5
:10EDA000D8B0D5EF76F0D7EF76F0D9EF76F09CEFCC
:10EDB00076F0D8904A32493248324732503ED9EF45
:10EDC00076F0FBEF76F01F0E5064E9EF76F0EBEF94
:10EDD00076F0F3EF76F09CEF76F0D8904736483631
:10EDE00049364A3650065050D8A4F9EF76F0FBEF7A
:10EDF00076F0EDEF76F04F50D8B401EF77F003EFF7
:10EE000077F00BEF77F04A1E491E481E476C000E44
:10EE1000482249224A2247C047F048C048F049C02A
:10EE200049F04AC04AF01200020E016E000E026E56
:10EE3000020E8BEC79F0010E016E010E026E000ED7
:10EE4000D3EC7AF03BEC76F0000E5FEC76F001C08C
:10EE500051F002C052F0000E326E000E336EC80E3A
:10EE6000346E420E356E000E196EC00E1A6E7F0E95
:10EE70001B6E440E1C6E51C001F052C002F0000E19
:10EE8000046E050E036E4CEC76F001C007F002C074
:10EE900008F0096A0A6A000EA4EC77F007C015F0C2
:10EEA00008C016F009C017F00AC018F01EEC7CF07C
:10EEB00015C02EF016C02FF017C030F018C031F07A
:10EEC000EBEC7DF02EC047F02FC048F030C049F089
:10EED00031C04AF091EC76F047C053F048C054F08E
:10EEE000020E016E010E026E020E7EEC78F0030E31
:10EEF000016E010E026E020E7EEC78F0040E016EC1
:10EF0000010E026E020E7EEC78F0545009E11E0EE6
:10EF1000535CD8A08EEF77F090EF77F099EF77F011
:10EF2000050E016E010E026E020E7EEC78F024EFEB
:10EF300077F0050E016E000E026E020E7EEC78F088
:10EF400024EF77F000EF00F00F6E0F50D8B4ABEF66
:10EF500077F0ADEF77F0CFEF77F00ABEB4EF77F050
:10EF6000B2EF77F0CFEF77F007C00BF008C00CF0EE
:10EF700009C00DF00AC00EF00B1E0C1E0D1E0E1E59
:10EF80000B2A000E0C220D220E220BC011F00CC019
:10EF900012F00DC013F00EC014F0D7EF77F007C0D9
:10EFA00011F008C012F009C013F00AC014F00750A5
:10EFB000081009100A10D8A4E0EF77F0E2EF77F01C
:10EFC000ECEF77F0000E076E000E086E000E096E73
:10EFD000000E0A6E7DEF78F0960E106EF6EF77F069
:10EFE000102AD8901432133212321132000E11143A
:10EFF0000B6E000E12140C6E000E13140D6EFE0E2E
:10F0000014140E6E0B500C100D100E10D8A40BEF34
:10F0100078F00DEF78F0F0EF77F01BEF78F0102A32
:10F02000010E1126000E122213221422D89014323F
:10F03000133212321132000E11140B6E000E121424
:10F040000C6E000E13140D6EFF0E14140E6E0B508A
:10F050000C100D100E10D8A430EF78F032EF78F0CD
:10F060000FEF78F03AEF78F01006D890113612369C
:10F070001336143613BE3FEF78F041EF78F049EFC6
:10F0800078F0020E106047EF78F049EF78F034EF37
:10F0900078F010B04EEF78F050EF78F051EF78F054
:10F0A000139ED890103210C00BF00C6A0D6A0E6AD5
:10F0B0000BC00EF00D6A0C6A0B6A0B5011120C504B
:10F0C00012120D5013120E5014120F50D8B46BEFD1
:10F0D00078F06DEF78F075EF78F00ABE74EF78F0A5
:10F0E00072EF78F075EF78F0148E11C007F012C04F
:10F0F00008F013C009F014C00AF01200056E050EE6
:10F10000056085EF78F087EF78F08AEF79F0080EE8
:10F1100001608DEF78F08FEF78F08AEF79F00204DC
:10F12000D8A495EF78F097EF78F00AEF79F0E9EF4F
:10F1300078F001C003F0010E046E032AA2EF78F00C
:10F14000D8900436032EA0EF78F0045080128AEF96
:10F1500079F001C003F0010E046E032AB2EF78F0DB
:10F16000D8900436032EB0EF78F0045081128AEF65
:10F1700079F001C003F0010E046E032AC2EF78F0AB
:10F18000D8900436032EC0EF78F0045082128AEF34
:10F1900079F001C003F0010E046E032AD2EF78F07B
:10F1A000D8900436032ED0EF78F0045083128AEF03
:10F1B00079F001C003F0010E046E032AE2EF78F04B
:10F1C000D8900436032EE0EF78F0045084128AEFD2
:10F1D00079F00550036E046A0450000AD8B4F3EFC6
:10F1E00078F08AEF79F00350000AD8B499EF78F0FC
:10F1F000010AD8B4A9EF78F0030AD8B4B9EF78F0CF
:10F20000010AD8B4C9EF78F0070AD8B4D9EF78F07A
:10F210008AEF79F00250D8A410EF79F012EF79F06C
:10F220008AEF79F069EF79F001C003F0010E046E06
:10F23000032A1DEF79F0D8900436032E1BEF79F0E6
:10F240000450FF0A80168AEF79F001C003F0010E26
:10F25000046E032A2EEF79F0D8900436032E2CEF9B
:10F2600079F00450FF0A81168AEF79F001C003F0AB
:10F27000010E046E032A3FEF79F0D8900436032E76
:10F280003DEF79F00450FF0A82168AEF79F001C051
:10F2900003F0010E046E032A50EF79F0D890043683
:10F2A000032E4EEF79F00450FF0A83168AEF79F0AF
:10F2B00001C003F0010E046E032A61EF79F0D890CB
:10F2C0000436032E5FEF79F00450FF0A84168AEFAC
:10F2D00079F00550036E046A0450000AD8B473EF45
:10F2E00079F08AEF79F00350000AD8B414EF79F07E
:10F2F000010AD8B425EF79F0030AD8B436EF79F0D3
:10F30000010AD8B447EF79F0070AD8B458EF79F07A
:10F310008AEF79F01200086E050E016092EF79F025
:10F3200094EF79F0D2EF7AF001C009F0B9EF7AF0FA
:10F330000250D8A49EEF79F0A0EF79F0B1EF79F008
:10F3400009C003F0010E046E032AA9EF79F0D890EA
:10F350000436032EA7EF79F00450FF0A9216B8EF97
:10F360007AF00204D8A4B7EF79F0B9EF79F0C9EFD9
:10F3700079F009C003F0010E046E032AC2EF79F0A0
:10F38000D8900436032EC0EF79F004509212B8EFF3
:10F390007AF00250D8A4CFEF79F0D1EF79F0E2EF14
:10F3A00079F009C003F0010E046E032ADAEF79F058
:10F3B000D8900436032ED8EF79F00450FF0A931644
:10F3C000B8EF7AF00204D8A4E8EF79F0EAEF79F028
:10F3D000FAEF79F009C003F0010E046E032AF3EF8F
:10F3E00079F0D8900436032EF1EF79F0045093129F
:10F3F000B8EF7AF00250D8A400EF7AF002EF7AF07A
:10F4000013EF7AF009C003F0010E046E032A0BEF2C
:10F410007AF0D8900436032E09EF7AF00450FF0AF0
:10F420009416B8EF7AF00204D8A419EF7AF01BEF23
:10F430007AF02BEF7AF009C003F0010E046E032A74
:10F4400024EF7AF0D8900436032E22EF7AF004509D
:10F450009412B8EF7AF00250D8A431EF7AF033EF7B
:10F460007AF044EF7AF009C003F0010E046E032A2B
:10F470003CEF7AF0D8900436032E3AEF7AF004503D
:10F48000FF0A9516B8EF7AF00204D8A44AEF7AF092
:10F490004CEF7AF05CEF7AF009C003F0010E046ED5
:10F4A000032A55EF7AF0D8900436032E53EF7AF002
:10F4B00004509512B8EF7AF0030E096062EF7AF00B
:10F4C00064EF7AF0B8EF7AF00250D8A46AEF7AF0DD
:10F4D0006CEF7AF07DEF7AF009C003F0010E046E54
:10F4E000032A75EF7AF0D8900436032E73EF7AF082
:10F4F0000450FF0A9616B8EF7AF00204D8A483EFFE
:10F500007AF085EF7AF095EF7AF009C003F0010EFA
:10F51000046E032A8EEF7AF0D8900436032E8CEF17
:10F520007AF004509612B8EF7AF0B8EF7AF00850FB
:10F53000036E046A0450000AD8B4A1EF7AF0B8EF61
:10F540007AF00350000AD8B498EF79F0010AD8B4E1
:10F55000C9EF79F0030AD8B4FAEF79F0010AD8B408
:10F560002BEF7AF0070AD8B45CEF7AF0B8EF7AF0B4
:10F57000092A0950036E046A0150056E066A030EDB
:10F580000526000E06220350055C0650800A076E11
:10F590000450800A0758D8B0D0EF7AF0D2EF7AF052
:10F5A00097EF7AF012000A6E0150040DF350FC0F31
:10F5B0000B6EFCEF7BF00250D8A4E1EF7AF0E3EFA2
:10F5C0007AF0F4EF7AF00BC003F0010E046E032A18
:10F5D000ECEF7AF0D8900436032EEAEF7AF004507C
:10F5E000FF0A9216FBEF7BF00204D8A4FAEF7AF040
:10F5F000FCEF7AF00CEF7BF00BC003F0010E046E11
:10F60000032A05EF7BF0D8900436032E03EF7BF03E
:10F6100004509212FBEF7BF00250D8A412EF7BF063
:10F6200014EF7BF025EF7BF00BC003F0010E046EAE
:10F63000032A1DEF7BF0D8900436032E1BEF7BF0DE
:10F640000450FF0A9316FBEF7BF00204D8A42BEFC3
:10F650007BF02DEF7BF03DEF7BF00BC003F0010E54
:10F66000046E032A36EF7BF0D8900436032E34EF75
:10F670007BF004509312FBEF7BF00250D8A443EFD1
:10F680007BF045EF7BF056EF7BF00BC003F0010EF3
:10F69000046E032A4EEF7BF0D8900436032E4CEF15
:10F6A0007BF00450FF0A9416FBEF7BF00204D8A411
:10F6B0005CEF7BF05EEF7BF06EEF7BF00BC003F056
:10F6C000010E046E032A67EF7BF0D8900436032EF8
:10F6D00065EF7BF004509412FBEF7BF00250D8A44E
:10F6E00074EF7BF076EF7BF087EF7BF00BC003F0DD
:10F6F000010E046E032A7FEF7BF0D8900436032EB0
:10F700007DEF7BF00450FF0A9516FBEF7BF00204BF
:10F71000D8A48DEF7BF08FEF7BF09FEF7BF00BC0D9
:10F7200003F0010E046E032A98EF7BF0D8900436A4
:10F73000032E96EF7BF004509512FBEF7BF0030E47
:10F740000B60A5EF7BF0A7EF7BF0FBEF7BF00250A7
:10F75000D8A4ADEF7BF0AFEF7BF0C0EF7BF00BC038
:10F7600003F0010E046E032AB8EF7BF0D890043644
:10F77000032EB6EF7BF00450FF0A9616FBEF7BF0EA
:10F780000204D8A4C6EF7BF0C8EF7BF0D8EF7BF083
:10F790000BC003F0010E046E032AD1EF7BF0D8906A
:10F7A0000436032ECFEF7BF004509612FBEF7BF074
:10F7B000FBEF7BF00A50036E046A0450000AD8B4D1
:10F7C000E4EF7BF0FBEF7BF00350000AD8B4DBEFF3
:10F7D0007AF0010AD8B40CEF7BF0030AD8B43DEFFD
:10F7E0007BF0010AD8B46EEF7BF0070AD8B49FEF24
:10F7F0007BF0FBEF7BF00B2A0B50036E046A015089
:10F80000056E066AD89005360636D8900536063657
:10F81000FF0E0524076EFF0E0620086E0350075CDE
:10F820000850800A096E0450800A0958D8B01BEFAE
:10F830007CF01DEF7CF0DAEF7BF012001850800BAB
:10F84000256E185018242C6E17AE29EF7CF02BEF84
:10F850007CF02CEF7CF02C802C50D8B432EF7CF074
:10F8600034EF7CF049EF7CF02C28D8A43AEF7CF000
:10F870003CEF7CF044EF7CF0000E156E000E166E2F
:10F88000000E176E000E186E178E000E186E51EFD8
:10F890007CF0000E156E000E166E000E176E000E38
:10F8A000186E1C50800B251A1C501C242D6E1BAE8C
:10F8B0005CEF7CF05EEF7CF05FEF7CF02D802D50F4
:10F8C000D8B465EF7CF067EF7CF07CEF7CF02D28FE
:10F8D000D8A46DEF7CF06FEF7CF077EF7CF0000E3A
:10F8E000196E000E1A6E000E1B6E000E1C6E1B8E23
:10F8F000000E1C6E84EF7CF0000E196E000E1A6E66
:10F90000000E1B6E000E1C6E19501A101B101C10DE
:10F91000D8A48DEF7CF08FEF7CF0A7EF7CF0000E89
:10F92000156E000E166E000E176E000E186E800E0D
:10F9300017127F0E18122550181215C015F016C098
:10F9400016F017C017F018C018F0EAEF7DF02C5031
:10F95000D8A4ADEF7CF0AFEF7CF0B9EF7CF0000EF7
:10F96000156E000E166E000E176E000E186EEAEF82
:10F970007DF02D502CC01DF01E6A1D5E000E1E5A1B
:10F980007F0E1D24266E000E1E20276E15C021F04E
:10F9900016C022F017C023F018C024F0000E156E18
:10F9A000000E166E000E176E000E186E000E286EFA
:10F9B000000E296E000E2A6E000E2B6E000E2D6EAC
:10F9C0001AEF7DF02D50D8B4E8EF7CF0EAEF7CF030
:10F9D00001EF7DF0D8902136223623362436D89098
:10F9E00015361636173618362BAEF9EF7CF0FBEFCE
:10F9F0007CF0FCEF7CF01580D890283629362A362A
:10FA00002B361950215C1A5022581B5023581C5079
:10FA10002458D8A00EEF7DF010EF7DF019EF7DF0A7
:10FA20002B8C1950215E1A50225A1B50235A1C50FD
:10FA3000245A2D2A190E2D6420EF7DF022EF7DF03F
:10FA4000E2EF7CF02150221023102410D8B42BEFC9
:10FA50007DF02DEF7DF045EF7DF0288045EF7DF0C6
:10FA6000D89015361636173618362BAE3AEF7DF08D
:10FA70003CEF7DF03DEF7DF01580D890283629369B
:10FA80002A362B362606D8A0270617AE4AEF7DF079
:10FA90004CEF7DF030EF7DF0000E2D6E2BAE53EF6E
:10FAA0007DF055EF7DF079EF7DF0FF0E28141D6E8F
:10FAB000FF0E29141E6EFF0E2A141F6E7F0E2B14CC
:10FAC000206E1D501E101F102010D8B46AEF7DF05C
:10FAD0006CEF7DF070EF7DF0010E2D6E79EF7DF013
:10FAE00015A075EF7DF077EF7DF079EF7DF06CEF8D
:10FAF0007DF02D50D8B47FEF7DF081EF7DF0A5EF44
:10FB00007DF0010E1526000E16221722182218A0CD
:10FB10008CEF7DF08EEF7DF0A5EF7DF015C01DF030
:10FB200016C01EF017C01FF018C020F0203420327D
:10FB30001F321E321D321DC015F01EC016F01FC030
:10FB400017F020C018F0264A272A27BEB0EF7DF014
:10FB5000275008E12628D8A0B0EF7DF0B2EF7DF065
:10FB6000BDEF7DF0000E276E2668000E156E000EAC
:10FB7000166E000E176E000E186E27BECAEF7DF0CF
:10FB8000275006E12604D8B0C8EF7DF0CAEF7DF01B
:10FB9000D8EF7DF0000E276E000E266E000E156E5B
:10FBA000000E166E000E176E000E186E000E256EFB
:10FBB00026C02CF02CA0DFEF7DF0E1EF7DF0E4EF2C
:10FBC0007DF0178EE5EF7DF0179ED8902C30186EE3
:10FBD0009BEF7CF012003150800B3A6E3150312493
:10FBE000406E30AEF6EF7DF0F8EF7DF0F9EF7DF08E
:10FBF00040804050D8B4FFEF7DF001EF7EF014EF6D
:10FC00007EF04028D8A407EF7EF009EF7EF011EFD8
:10FC10007EF0000E2E6E000E2F6E000E306E000E67
:10FC2000316E308E1CEF7EF0000E2E6E000E2F6EA9
:10FC3000000E306E000E316E3550800B3A1A355082
:10FC400035243F6E34AE27EF7EF029EF7EF02AEFA9
:10FC50007EF03F803F50D8B430EF7EF032EF7EF040
:10FC600045EF7EF03F28D8A438EF7EF03AEF7EF0E3
:10FC700042EF7EF0000E326E000E336E000E346ED8
:10FC8000000E356E348E4DEF7EF0000E326E000E9B
:10FC9000336E000E346E000E356E3F50D8B453EF05
:10FCA0007EF055EF7EF05DEF7EF04050D8A45BEF24
:10FCB0007EF05DEF7EF067EF7EF0000E2E6E000EA0
:10FCC0002F6E000E306E000E316EFFEF7FF034505D
:10FCD0002E02F3CF45F0F4CF46F045503B6E3C6A20
:10FCE0003D6A3E6A4650416E426A436A446A3350F6
:10FCF0002F02F3CF45F0F4CF46F045503B26000EDF
:10FD00003C223D223E2246504126000E4222432202
:10FD1000442232503002F3CF45F0F4CF46F0455044
:10FD20003B26000E3C223D223E2246504126000E3C
:10FD30004222432244223DC03EF03CC03DF03BC045
:10FD40003CF03B6A32502F02F3CF45F0F4CF46F03F
:10FD500045503B2646503C22000E3D22000E3E22DE
:10FD600033502E02F3CF45F0F4CF46F045503B26FA
:10FD700046503C22000E3D22000E3E223DC03EF089
:10FD80003CC03DF03BC03CF03B6A32502E02F3CF0A
:10FD900045F0F4CF46F045503B2646503C22000E3D
:10FDA0003D22000E3E2234502F02F3CF45F0F4CF17
:10FDB00046F04550412646504222000E4322000E96
:10FDC000442233503002F3CF45F0F4CF46F0455093
:10FDD000412646504222000E4322000E4422345057
:10FDE0003002F3CF45F0F4CF46F04550366E465022
:10FDF000376E386A396A38C039F037C038F036C0E3
:10FE000037F0366A36504126375042223850432266
:10FE1000395044223BC036F03CC037F03DC038F08A
:10FE20003EC039F0190E1AEF7FF0D89039323832CF
:10FE300037323632E82E15EF7FF0365041263750F4
:10FE4000422238504322395044223DC03EF03CC04B
:10FE50003DF03BC03CF03B6A3F5040C036F0376A53
:10FE60003626000E3722820E3624456EFF0E3720CE
:10FE7000466E50EF7FF0D8904136423643364436D6
:10FE80003EAE45EF7FF047EF7FF048EF7FF04180D7
:10FE9000D8903B363C363D363E364506D8A0460621
:10FEA00043AE55EF7FF057EF7FF03BEF7FF0000E52
:10FEB0003F6E3EAE5EEF7FF060EF7FF084EF7FF04D
:10FEC000FF0E3B14366EFF0E3C14376EFF0E3D14D2
:10FED000386E7F0E3E14396E365037103810391098
:10FEE000D8B475EF7FF077EF7FF07BEF7FF0010EF6
:10FEF0003F6E84EF7FF041A080EF7FF082EF7FF0D4
:10FF000084EF7FF077EF7FF03F50D8B48AEF7FF037
:10FF10008CEF7FF0B0EF7FF0010E4126000E422201
:10FF20004322442244A097EF7FF099EF7FF0B0EF97
:10FF30007FF041C036F042C037F043C038F044C0D3
:10FF400039F03934393238323732363236C041F04E
:10FF500037C042F038C043F039C044F0454A462A21
:10FF600046BEBBEF7FF0465008E14528D8A0BBEF66
:10FF70007FF0BDEF7FF0C7EF7FF0000E416E000E07
:10FF8000426E800E436E7F0E446EF5EF7FF046BEEC
:10FF9000D4EF7FF0465006E14504D8B0D2EF7FF0B1
:10FFA000D4EF7FF0E0EF7FF0000E416E000E426E66
:10FFB000000E436E000E446E000E3A6EF5EF7FF0B9
:10FFC00045C040F0FF0E4116FF0E42167F0E43164D
:10FFD000000E441640A0EFEF7FF0F1EF7FF0F2EF5C
:10FFE0007FF0438ED8904030446E3A50441241C066
:10FFF0002EF042C02FF043C030F044C031F0120068
:020000040020DA
:08000000FFFFFFFFFFFFFFFF00
:020000040030CA
:0E000000FF021F1EFF8081FF0FC00FE00F40A8
:00000001FF
