:0400000007EF00F016
:100008007E82AAED09F0F1EF09F03250800B3B6EC9
:1000180032503224416E31AE14EF00F016EF00F08A
:1000280017EF00F041804150D8B41DEF00F01FEFEA
:1000380000F032EF00F04128D8A425EF00F027EFB8
:1000480000F02FEF00F0000E2F6E000E306E000E45
:10005800316E000E326E318E3AEF00F0000E2F6EC8
:10006800000E306E000E316E000E326E3650800B70
:100078003B1A36503624406E35AE45EF00F047EF58
:1000880000F048EF00F040804050D8B44EEF00F048
:1000980050EF00F063EF00F04028D8A456EF00F0CE
:1000A80058EF00F060EF00F0000E336E000E346E73
:1000B800000E356E000E366E358E6BEF00F0000EBA
:1000C800336E000E346E000E356E000E366E4050E4
:1000D800D8B471EF00F073EF00F07BEF00F04150FF
:1000E800D8A479EF00F07BEF00F085EF00F0000E68
:1000F8002F6E000E306E000E316E000E326E1DEF48
:1001080002F035502F02F3CF46F0F4CF47F04650B7
:100118003C6E3D6A3E6A3F6A4750426E436A446A93
:10012800456A34503002F3CF46F0F4CF47F04650DA
:100138003C26000E3D223E223F2247504226000E1A
:1001480043224422452233503102F3CF46F0F4CF04
:1001580047F046503C26000E3D223E223F224750A3
:100168004226000E4322442245223EC03FF03DC0B5
:100178003EF03CC03DF03C6A33503002F3CF46F0CD
:10018800F4CF47F046503C2647503D22000E3E2211
:10019800000E3F2234502F02F3CF46F0F4CF47F041
:1001A80046503C2647503D22000E3E22000E3F227C
:1001B8003EC03FF03DC03EF03CC03DF03C6A33508D
:1001C8002F02F3CF46F0F4CF47F046503C26475075
:1001D8003D22000E3E22000E3F2235503002F3CF62
:1001E80046F0F4CF47F04650422647504322000ECF
:1001F8004422000E452234503102F3CF46F0F4CFAA
:1002080047F04650422647504322000E4422000E33
:10021800452235503102F3CF46F0F4CF47F046502F
:10022800376E4750386E396A3A6A39C03AF038C082
:1002380039F037C038F0376A3750422638504322F1
:10024800395044223A5045223CC037F03DC038F07E
:100258003EC039F03FC03AF0190E38EF01F0D8909F
:100268003A32393238323732E82E33EF01F037502C
:10027800422638504322395044223A5045223EC043
:100288003FF03DC03EF03CC03DF03C6A405041C0AC
:1002980037F0386A3726000E3822820E3724466E29
:1002A800FF0E3820476E6EEF01F0D8904236433685
:1002B800443645363FAE63EF01F065EF01F066EF77
:1002C80001F04280D8903C363D363E363F364606F1
:1002D800D8A0470644AE73EF01F075EF01F059EF6F
:1002E80001F0000E406E3FAE7CEF01F07EEF01F0B2
:1002F800A2EF01F0FF0E3C14376EFF0E3D14386E6E
:10030800FF0E3E14396E7F0E3F143A6E3750381088
:1003180039103A10D8B493EF01F095EF01F099EF46
:1003280001F0010E406EA2EF01F042A09EEF01F035
:10033800A0EF01F0A2EF01F095EF01F04050D8B422
:10034800A8EF01F0AAEF01F0CEEF01F0010E42266E
:10035800000E43224422452245A0B5EF01F0B7EF35
:1003680001F0CEEF01F042C037F043C038F044C08E
:1003780039F045C03AF03A343A3239323832373205
:1003880037C042F038C043F039C044F03AC045F0B5
:10039800464A472A47BED9EF01F0475008E14628A8
:1003A800D8A0D9EF01F0DBEF01F0E5EF01F0000E86
:1003B800426E000E436E800E446E7F0E456E13EF44
:1003C80002F047BEF2EF01F0475006E14604D8B00C
:1003D800F0EF01F0F2EF01F0FEEF01F0000E426ED7
:1003E800000E436E000E446E000E456E000E3B6E0E
:1003F80013EF02F046C041F0FF0E4216FF0E4316FF
:100408007F0E4416000E451641A00DEF02F00FEFC7
:1004180002F010EF02F0448ED8904130456E3B5008
:10042800451242C02FF043C030F044C031F045C0FF
:1004380032F012001950800B266E195019242D6EB7
:1004480018AE29EF02F02BEF02F02CEF02F02D800E
:100458002D50D8B432EF02F034EF02F049EF02F039
:100468002D28D8A43AEF02F03CEF02F044EF02F056
:10047800000E166E000E176E000E186E000E196E26
:10048800188E000E196E51EF02F0000E166E000E57
:10049800176E000E186E000E196E1D50800B261A6E
:1004A8001D501D242E6E1CAE5CEF02F05EEF02F0B4
:1004B8005FEF02F02E802E50D8B465EF02F067EFA0
:1004C80002F07CEF02F02E28D8A46DEF02F06FEF57
:1004D80002F077EF02F0000E1A6E000E1B6E000E8F
:1004E8001C6E000E1D6E1C8E000E1D6E84EF02F039
:1004F800000E1A6E000E1B6E000E1C6E000E1D6E96
:100508001A501B101C101D10D8A48DEF02F08FEF8D
:1005180002F0A7EF02F0000E166E000E176E000E26
:10052800186E000E196E800E18127F0E19122650C2
:10053800191216C016F017C017F018C018F019C015
:1005480019F0EAEF03F02D50D8A4ADEF02F0AFEFA9
:1005580002F0B9EF02F0000E166E000E176E000ED4
:10056800186E000E196EEAEF03F02E502DC01EF023
:100578001F6A1E5E000E1F5A7F0E1E24276E000E75
:100588001F20286E16C022F017C023F018C024F0D0
:1005980019C025F0000E166E000E176E000E186EAC
:1005A800000E196E000E296E000E2A6E000E2B6EBC
:1005B800000E2C6E000E2E6E1AEF03F02E50D8B4DB
:1005C800E8EF02F0EAEF02F001EF03F0D8902236EC
:1005D800233624362536D890163617361836193667
:1005E8002CAEF9EF02F0FBEF02F0FCEF02F0168000
:1005F800D89029362A362B362C361A50225C1B50B6
:1006080023581C5024581D502558D8A00EEF03F02D
:1006180010EF03F019EF03F02C8C1A50225E1B50D8
:10062800235A1C50245A1D50255A2E2A190E2E645E
:1006380020EF03F022EF03F0E2EF02F02250231044
:1006480024102510D8B42BEF03F02DEF03F045EF5D
:1006580003F0298045EF03F0D89016361736183680
:1006680019362CAE3AEF03F03CEF03F03DEF03F000
:100678001680D89029362A362B362C362706D8A04D
:10068800280618AE4AEF03F04CEF03F030EF03F002
:10069800000E2E6E2CAE53EF03F055EF03F079EFFA
:1006A80003F0FF0E29141E6EFF0E2A141F6EFF0E94
:1006B8002B14206E7F0E2C14216E1E501F1020103C
:1006C8002110D8B46AEF03F06CEF03F070EF03F079
:1006D800010E2E6E79EF03F016A075EF03F077EF99
:1006E80003F079EF03F06CEF03F02E50D8B47FEFEE
:1006F80003F081EF03F0A5EF03F0010E1626000EBC
:1007080017221822192219A08CEF03F08EEF03F09C
:10071800A5EF03F016C01EF017C01FF018C020F098
:1007280019C021F02134213220321F321E321EC05E
:1007380016F01FC017F020C018F021C019F0274A82
:10074800282A28BEB0EF03F0285008E12728D8A0AF
:10075800B0EF03F0B2EF03F0BDEF03F0000E286E28
:100768002768000E166E000E176E000E186E000E2B
:10077800196E28BECAEF03F0285006E12704D8B046
:10078800C8EF03F0CAEF03F0D8EF03F0000E286EAD
:10079800000E276E000E166E000E176E000E186EF5
:1007A800000E196E000E266E27C02DF02DA0DFEF6B
:1007B80003F0E1EF03F0E4EF03F0188EE5EF03F048
:1007C800189ED8902D30196E9BEF02F012000B6E18
:1007D8000250040DF350FC0F0C6E14EF05F003509B
:1007E800D8A4F9EF03F0FBEF03F00CEF04F00CC012
:1007F80004F0010E056E042A04EF04F0D8900536C3
:10080800042E02EF04F00550FF0A921613EF05F0CC
:100818000304D8A412EF04F014EF04F024EF04F05A
:100828000CC004F0010E056E042A1DEF04F0D890E8
:100838000536042E1BEF04F00550921213EF05F055
:100848000350D8A42AEF04F02CEF04F03DEF04F095
:100858000CC004F0010E056E042A35EF04F0D890A0
:100868000536042E33EF04F00550FF0A931613EFF4
:1008780005F00304D8A443EF04F045EF04F055EF66
:1008880004F00CC004F0010E056E042A4EEF04F0CB
:10089800D8900536042E4CEF04F00550931213EF50
:1008A80005F00350D8A45BEF04F05DEF04F06EEFA1
:1008B80004F00CC004F0010E056E042A66EF04F083
:1008C800D8900536042E64EF04F00550FF0A9416FC
:1008D80013EF05F00304D8A474EF04F076EF04F0E6
:1008E80086EF04F00CC004F0010E056E042A7FEFB9
:1008F80004F0D8900536042E7DEF04F005509412CC
:1009080013EF05F00350D8A48CEF04F08EEF04F039
:100918009FEF04F00CC004F0010E056E042A97EF57
:1009280004F0D8900536042E95EF04F00550FF0A20
:10093800951613EF05F00304D8A4A5EF04F0A7EF6C
:1009480004F0B7EF04F00CC004F0010E056E042AA1
:10095800B0EF04F0D8900536042EAEEF04F0055041
:10096800951213EF05F0030E0C60BDEF04F0BFEF16
:1009780004F013EF05F00350D8A4C5EF04F0C7EF57
:1009880004F0D8EF04F00CC004F0010E056E042A40
:10099800D0EF04F0D8900536042ECEEF04F00550C1
:1009A800FF0A961613EF05F00304D8A4DEEF04F04F
:1009B800E0EF04F0F0EF04F00CC004F0010E056E57
:1009C800042AE9EF04F0D8900536042EE7EF04F086
:1009D8000550961213EF05F013EF05F00B50046E57
:1009E800056A0550000AD8B4FCEF04F013EF05F0CF
:1009F8000450000AD8B4F3EF03F0010AD8B424EF86
:100A080004F0030AD8B455EF04F0010AD8B486EF0D
:100A180004F0070AD8B4B7EF04F013EF05F00C2A76
:100A28000C50046E056A0250066E076AD8900636A6
:100A38000736D89006360736FF0E0624086EFF0ED6
:100A48000720096E0450085C0950800A0A6E055098
:100A5800800A0A58D8B033EF05F035EF05F0F2EF09
:100A680004F01200096E050E02603DEF05F03FEF3D
:100A780005F07DEF06F002C00AF064EF06F00350BF
:100A8800D8A449EF05F04BEF05F05CEF05F00AC07C
:100A980004F0010E056E042A54EF05F0D8900536CF
:100AA800042E52EF05F00550FF0A921663EF06F088
:100AB8000304D8A462EF05F064EF05F074EF05F0C5
:100AC8000AC004F0010E056E042A6DEF05F0D890F7
:100AD8000536042E6BEF05F00550921263EF06F011
:100AE8000350D8A47AEF05F07CEF05F08DEF05F000
:100AF8000AC004F0010E056E042A85EF05F0D890AF
:100B08000536042E83EF05F00550FF0A931663EFB0
:100B180006F00304D8A493EF05F095EF05F0A5EFD0
:100B280005F00AC004F0010E056E042A9EEF05F0D8
:100B3800D8900536042E9CEF05F00550931263EF0C
:100B480006F00350D8A4ABEF05F0ADEF05F0BEEF0B
:100B580005F00AC004F0010E056E042AB6EF05F090
:100B6800D8900536042EB4EF05F00550FF0A941608
:100B780063EF06F00304D8A4C4EF05F0C6EF05F050
:100B8800D6EF05F00AC004F0010E056E042ACFEF77
:100B980005F0D8900536042ECDEF05F005509412D7
:100BA80063EF06F00350D8A4DCEF05F0DEEF05F0A4
:100BB800EFEF05F00AC004F0010E056E042AE7EF16
:100BC80005F0D8900536042EE5EF05F00550FF0A2C
:100BD800951663EF06F00304D8A4F5EF05F0F7EFD8
:100BE80005F007EF06F00AC004F0010E056E042AAE
:100BF80000EF06F0D8900536042EFEEF05F00550FC
:100C0800951263EF06F0030E0A600DEF06F00FEF82
:100C180006F063EF06F00350D8A415EF06F017EFBF
:100C280006F028EF06F00AC004F0010E056E042A4B
:100C380020EF06F0D8900536042E1EEF06F005507A
:100C4800FF0A961663EF06F00304D8A42EEF06F009
:100C580030EF06F040EF06F00AC004F0010E056E12
:100C6800042A39EF06F0D8900536042E37EF06F03F
:100C78000550961263EF06F063EF06F00950046E14
:100C8800056A0550000AD8B44CEF06F063EF06F089
:100C98000450000AD8B443EF05F0010AD8B474EF41
:100CA80005F0030AD8B4A5EF05F0010AD8B4D6EFC9
:100CB80005F0070AD8B407EF06F063EF06F00A2A32
:100CC8000A50046E056A0250066E076A030E06266D
:100CD800000E07220450065C0750800A086E055073
:100CE800800A0858D8B07BEF06F07DEF06F042EF97
:100CF80006F01200066E050E066085EF06F087EF17
:100D080006F08AEF07F0080E02608DEF06F08FEF0D
:100D180006F08AEF07F00304D8A495EF06F097EFE2
:100D280006F00AEF07F0E9EF06F002C004F0010E42
:100D3800056E042AA2EF06F0D8900536042EA0EF1F
:100D480006F0055080128AEF07F002C004F0010E89
:100D5800056E042AB2EF06F0D8900536042EB0EFDF
:100D680006F0055081128AEF07F002C004F0010E68
:100D7800056E042AC2EF06F0D8900536042EC0EF9F
:100D880006F0055082128AEF07F002C004F0010E47
:100D9800056E042AD2EF06F0D8900536042ED0EF5F
:100DA80006F0055083128AEF07F002C004F0010E26
:100DB800056E042AE2EF06F0D8900536042EE0EF1F
:100DC80006F0055084128AEF07F00650046E056A93
:100DD8000550000AD8B4F3EF06F08AEF07F0045084
:100DE800000AD8B499EF06F0010AD8B4A9EF06F0C2
:100DF800030AD8B4B9EF06F0010AD8B4C9EF06F06F
:100E0800070AD8B4D9EF06F08AEF07F00350D8A440
:100E180010EF07F012EF07F08AEF07F069EF07F01D
:100E280002C004F0010E056E042A1DEF07F0D890E9
:100E38000536042E1BEF07F00550FF0A80168AEFCF
:100E480007F002C004F0010E056E042A2EEF07F029
:100E5800D8900536042E2CEF07F00550FF0A8116AE
:100E68008AEF07F002C004F0010E056E042A3FEF76
:100E780007F0D8900536042E3DEF07F00550FF0A1D
:100E880082168AEF07F002C004F0010E056E042AEC
:100E980050EF07F0D8900536042E4EEF07F00550B6
:100EA800FF0A83168AEF07F002C004F0010E056EF0
:100EB800042A61EF07F0D8900536042E5FEF07F09B
:100EC8000550FF0A84168AEF07F00650046E056A7B
:100ED8000550000AD8B473EF07F08AEF07F0045002
:100EE800000AD8B414EF07F0010AD8B425EF07F0C8
:100EF800030AD8B436EF07F0010AD8B447EF07F071
:100F0800070AD8B458EF07F08AEF07F01200106EFE
:100F18001050D8B492EF07F094EF07F0B6EF07F04F
:100F28000BBE9BEF07F099EF07F0B6EF07F008C08C
:100F38000CF009C00DF00AC00EF00BC00FF00C1E2B
:100F48000D1E0E1E0F1E0C2A000E0D220E220F2241
:100F58000CC012F00DC013F00EC014F00FC015F045
:100F6800BEEF07F008C012F009C013F00AC014F071
:100F78000BC015F0085009100A100B10D8A4C7EFC1
:100F880007F0C9EF07F0D3EF07F0000E086E000E68
:100F9800096E000E0A6E000E0B6E64EF08F0960ED6
:100FA800116EDDEF07F0112AD89015321432133282
:100FB8001232000E12140C6E000E13140D6E000E79
:100FC80014140E6EFE0E15140F6E0C500D100E102C
:100FD8000F10D8A4F2EF07F0F4EF07F0D7EF07F0FF
:100FE80002EF08F0112A010E1226000E1322142215
:100FF8001522D8901532143213321232000E121400
:101008000C6E000E13140D6E000E14140E6EFF0EEF
:1010180015140F6E0C500D100E100F10D8A417EFEA
:1010280008F019EF08F0F6EF07F021EF08F01106C5
:10103800D890123613361436153614BE26EF08F03B
:1010480028EF08F030EF08F0020E11602EEF08F0DC
:1010580030EF08F01BEF08F011B035EF08F037EF6C
:1010680008F038EF08F0149ED890113211C00CF037
:101078000D6A0E6A0F6A0CC00FF00E6A0D6A0C6AD0
:101088000C5012120D5013120E5014120F5015124C
:101098001050D8B452EF08F054EF08F05CEF08F0A5
:1010A8000BBE5BEF08F059EF08F05CEF08F0158E07
:1010B80012C008F013C009F014C00AF015C00BF0F4
:1010C8001200020E026E000E036E020E36EC05F0E0
:1010D800010E026E010E036E000EEBEC03F0E0EC65
:1010E80009F0000E78EC09F002C052F003C053F08A
:1010F800000E336E000E346EC80E356E420E366E1C
:10110800000E1A6EC00E1B6E7F0E1C6E440E1D6EF6
:1011180052C002F053C003F0000E056E050E046EB7
:10112800CDEC09F002C008F003C009F00A6A0B6AA6
:10113800000E8BEC07F008C016F009C017F00AC0C3
:1011480018F00BC019F01EEC02F016C02FF017C0F3
:1011580030F018C031F019C032F009EC00F02FC09F
:1011680048F030C049F031C04AF032C04BF0F5ECDD
:1011780008F048C054F049C055F0020E026E010E46
:10118800036E020E7EEC06F0030E026E010E036E75
:10119800020E7EEC06F0040E026E010E036E020EC5
:1011A8007EEC06F0555009E11E0E545CD8A0DFEF26
:1011B80008F0E1EF08F0EAEF08F0050E026E010E04
:1011C800036E020E7EEC06F075EF08F0050E026E57
:1011D800000E036E020E7EEC06F075EF08F007EFC6
:1011E80000F04A344B34516E5150D8A4FEEF08F049
:1011F80000EF09F00AEF09F0000E486E000E496E84
:10120800000E4A6E000E4B6E77EF09F048C04CF0A6
:1012180049C04DF04AC04EF04BC04FF0200E1AEFB7
:1012280009F0D8904F324E324D324C32E82E15EF3D
:1012380009F04C50506E4A8EFF0E4816FF0E4916A4
:10124800FF0E4A16000E4B16960E515E51BE31EF38
:1012580009F02FEF09F047EF09F05150800A970F76
:10126800D8B039EF09F03BEF09F03DEF09F000EF96
:1012780009F0D8904B324A3249324832513E3DEF5C
:1012880009F05FEF09F01F0E51644DEF09F04FEFC1
:1012980009F057EF09F000EF09F0D89048364936C1
:1012A8004A364B3651065150D8A45DEF09F05FEF2E
:1012B80009F051EF09F05050D8B465EF09F067EF25
:1012C80009F06FEF09F04B1E4A1E491E486C000ECC
:1012D80049224A224B2248C048F049C049F04AC036
:1012E8004AF04BC04BF01200066EC30EC2160650F1
:1012F800040DF350030FC216410E046EEE0EE82ED5
:10130800FED7042EFCD700D0C282C2CF04F0D890FA
:10131800043204B092EF09F094EF09F089EF09F074
:10132800410E046EEE0EE82EFED7042EFCD700D038
:10133800C450056E046AC3500424076E000E0520CD
:10134800086E07C002F008C003F012000600F2CFD2
:1013580001F0D890013201A0B4EF09F0B6EF09F01E
:10136800B7EF09F0F292F0A0BCEF09F0BEEF09F078
:10137800BFEF09F0F090F0CF01F0D890013201A052
:10138800C8EF09F0CAEF09F0CBEF09F0F0927E92AE
:10139800110002500402F3CF06F0F4CF07F0025018
:1013A8000502F350072603500402F350072606C02F
:1013B80002F007C003F012000E0EC16EC198C19A68
:1013C800C050F00B0609C06EC086C088C08AC050E5
:1013D8007F0B8009C06EC280120000EE56F0280E06
:1013E800EE6AE806FDE17E907E92000EF86E00013E
:0413F80065EF08F0A5
:020000040020DA
:08000000FFFFFFFFFFFFFFFF00
:020000040030CA
:0E000000FF021F1EFF8081FF0FC00FE00F40A8
:00000001FF
