:040000004DEF7DF053
:10FA9A0000EE01F0280EEE6AE806FDE1000EF86EAF
:10FAAA00000158EF7DF0020E296E000E2A6E010E3B
:10FABA006AEC7DF0020E296E010E2A6E010EB5EC7B
:10FACA007EF066EF7DF000EF00F0326E2950040DF3
:10FADA00F350FC0F336E93EF7EF02A50D8A478EFE0
:10FAEA007DF07AEF7DF08BEF7DF033C02BF0010EC5
:10FAFA002C6E2B2A83EF7DF0D8902C362B2E81EF9B
:10FB0A007DF02C50FF0A921692EF7EF02A04D8A4B8
:10FB1A0091EF7DF093EF7DF0A3EF7DF033C02BF0F2
:10FB2A00010E2C6E2B2A9CEF7DF0D8902C362B2EB2
:10FB3A009AEF7DF02C50921292EF7EF02A50D8A4C0
:10FB4A00A9EF7DF0ABEF7DF0BCEF7DF033C02BF079
:10FB5A00010E2C6E2B2AB4EF7DF0D8902C362B2E6A
:10FB6A00B2EF7DF02C50FF0A931692EF7EF02A0432
:10FB7A00D8A4C2EF7DF0C4EF7DF0D4EF7DF033C09E
:10FB8A002BF0010E2C6E2B2ACDEF7DF0D8902C365F
:10FB9A002B2ECBEF7DF02C50931292EF7EF02A5051
:10FBAA00D8A4DAEF7DF0DCEF7DF0EDEF7DF033C025
:10FBBA002BF0010E2C6E2B2AE5EF7DF0D8902C3617
:10FBCA002B2EE3EF7DF02C50FF0A941692EF7EF075
:10FBDA002A04D8A4F3EF7DF0F5EF7DF005EF7EF06F
:10FBEA0033C02BF0010E2C6E2B2AFEEF7DF0D8903D
:10FBFA002C362B2EFCEF7DF02C50941292EF7EF0D7
:10FC0A002A50D8A40BEF7EF00DEF7EF01EEF7EF0A7
:10FC1A0033C02BF0010E2C6E2B2A16EF7EF0D890F3
:10FC2A002C362B2E14EF7EF02C50FF0A951692EFED
:10FC3A007EF02A04D8A424EF7EF026EF7EF036EF79
:10FC4A007EF033C02BF0010E2C6E2B2A2FEF7EF0A4
:10FC5A00D8902C362B2E2DEF7EF02C50951292EF49
:10FC6A007EF0030E33603CEF7EF03EEF7EF092EFC3
:10FC7A007EF02A50D8A444EF7EF046EF7EF057EF8C
:10FC8A007EF033C02BF0010E2C6E2B2A4FEF7EF044
:10FC9A00D8902C362B2E4DEF7EF02C50FF0A96165C
:10FCAA0092EF7EF02A04D8A45DEF7EF05FEF7EF03B
:10FCBA006FEF7EF033C02BF0010E2C6E2B2A68EF0B
:10FCCA007EF0D8902C362B2E66EF7EF02C509612B2
:10FCDA0092EF7EF092EF7EF032502B6E2C6A2C500F
:10FCEA00000AD8B47BEF7EF092EF7EF02B50000A28
:10FCFA00D8B472EF7DF0010AD8B4A3EF7DF0030AFD
:10FD0A00D8B4D4EF7DF0010AD8B405EF7EF0070A23
:10FD1A00D8B436EF7EF092EF7EF0332A33502B6E52
:10FD2A002C6A29502D6E2E6AD8902D362E36D890F0
:10FD3A002D362E36FF0E2D242F6EFF0E2E20306EFE
:10FD4A002B502F5C3050800A316E2C50800A31586B
:10FD5A00D8B0B2EF7EF0B4EF7EF071EF7EF0120011
:10FD6A00326E2950040DF350FC0F336EDEEF7FF034
:10FD7A002A50D8A4C3EF7EF0C5EF7EF0D6EF7EF00E
:10FD8A0033C02BF0010E2C6E2B2ACEEF7EF0D890CA
:10FD9A002C362B2ECCEF7EF02C50FF0A8016DDEF8E
:10FDAA007FF02A04D8A4DCEF7EF0DEEF7EF0EEEFDF
:10FDBA007EF033C02BF0010E2C6E2B2AE7EF7EF07B
:10FDCA00D8902C362B2EE5EF7EF02C508012DDEFEA
:10FDDA007FF02A50D8A4F4EF7EF0F6EF7EF007EF1A
:10FDEA007FF033C02BF0010E2C6E2B2AFFEF7EF032
:10FDFA00D8902C362B2EFDEF7EF02C50FF0A811660
:10FE0A00DDEF7FF02A04D8A40DEF7FF00FEF7FF02B
:10FE1A001FEF7FF033C02BF0010E2C6E2B2A18EF48
:10FE2A007FF0D8902C362B2E16EF7FF02C508112B3
:10FE3A00DDEF7FF02A50D8A425EF7FF027EF7FF07F
:10FE4A0038EF7FF033C02BF0010E2C6E2B2A30EFE7
:10FE5A007FF0D8902C362B2E2EEF7FF02C50FF0AF5
:10FE6A008216DDEF7FF02A04D8A43EEF7FF040EF40
:10FE7A007FF050EF7FF033C02BF0010E2C6E2B2A4F
:10FE8A0049EF7FF0D8902C362B2E47EF7FF02C507D
:10FE9A008212DDEF7FF02A50D8A456EF7FF058EF98
:10FEAA007FF069EF7FF033C02BF0010E2C6E2B2A06
:10FEBA0061EF7FF0D8902C362B2E5FEF7FF02C501D
:10FECA00FF0A8316DDEF7FF02A04D8A46FEF7FF0D4
:10FEDA0071EF7FF081EF7FF033C02BF0010E2C6EB3
:10FEEA002B2A7AEF7FF0D8902C362B2E78EF7FF0E2
:10FEFA002C508312DDEF7FF0030E336087EF7FF023
:10FF0A0089EF7FF0DDEF7FF02A50D8A48FEF7FF0E2
:10FF1A0091EF7FF0A2EF7FF033C02BF0010E2C6E31
:10FF2A002B2A9AEF7FF0D8902C362B2E98EF7FF061
:10FF3A002C50FF0A8416DDEF7FF02A04D8A4A8EF1C
:10FF4A007FF0AAEF7FF0BAEF7FF033C02BF0010EFB
:10FF5A002C6E2B2AB3EF7FF0D8902C362B2EB1EFD4
:10FF6A007FF02C508412DDEF7FF0DDEF7FF032500E
:10FF7A002B6E2C6A2C50000AD8B4C6EF7FF0DDEF46
:10FF8A007FF02B50000AD8B4BDEF7EF0010AD8B436
:10FF9A00EEEF7EF0030AD8B41FEF7FF0010AD8B45F
:10FFAA0050EF7FF0070AD8B481EF7FF0DDEF7FF0E2
:10FFBA00332A33502B6E2C6A29502D6E2E6AD89014
:10FFCA002D362E36D8902D362E36FF0E2D242F6E36
:10FFDA00FF0E2E20306E2B502F5C3050800A316E6F
:10FFEA002C50800A3158D8B0FDEF7FF0FFEF7FF038
:06FFFA00BCEF7FF01200D5
:020000040020DA
:08000000FFFFFFFFFFFFFFFF00
:020000040030CA
:0E000000FF021F1EFF8081FF0FC00FE00F40A8
:00000001FF
