:0400000078EF77F02E
:10EEF00000EE55F0280EEE6AE806FDE1000EF86E11
:10EF000000015CEF78F00E0EC16EC198C19AC0503E
:10EF1000F00B0609C06EC086C088C08AC0507F0B47
:10EF20008009C06EC280120001500302F3CF05F0C9
:10EF3000F4CF06F001500402F350062602500302FB
:10EF4000F350062605C001F006C002F01200056E5F
:10EF5000C30EC2160550040DF350030FC216410E26
:10EF6000036EEE0EE82EFED7032EFCD700D0C28231
:10EF7000C2CF03F0D890033203B0C1EF77F0C3EFF4
:10EF800077F0B8EF77F0410E036EEE0EE82EFED765
:10EF9000032EFCD700D0C450046E036AC350032470
:10EFA000066E000E0420076E06C001F007C002F0D6
:10EFB000120049344A34506E5050D8A4E2EF77F032
:10EFC000E4EF77F0EEEF77F0000E476E000E486E3C
:10EFD000000E496E000E4A6E5BEF78F047C04BF0B2
:10EFE00048C04CF049C04DF04AC04EF0200EFEEF34
:10EFF00077F0D8904E324D324C324B32E82EF9EF4A
:10F0000077F04B504F6E498EFF0E4716FF0E481695
:10F01000FF0E4916000E4A16960E505E50BE15EFB2
:10F0200078F013EF78F02BEF78F05050800A970FBC
:10F03000D8B01DEF78F01FEF78F021EF78F0E4EF13
:10F0400077F0D8904A32493248324732503E21EF69
:10F0500078F043EF78F01F0E506431EF78F033EF23
:10F0600078F03BEF78F0E4EF77F0D8904736483609
:10F0700049364A3650065050D8A441EF78F043EF55
:10F0800078F035EF78F04F50D8B449EF78F04BEF87
:10F0900078F053EF78F04A1E491E481E476C000E68
:10F0A000482249224A2247C047F048C048F049C098
:10F0B00049F04AC04AF01200010E016E010E026EC4
:10F0C000000ED3EC7AF0010E016E000E026E020EFD
:10F0D000D3EC7AF083EC77F0000EA7EC77F001C068
:10F0E00051F002C052F0000E326E000E336EC80EA8
:10F0F000346E420E356E000E196EC00E1A6E7F0E03
:10F100001B6E440E1C6E51C001F052C002F0000E86
:10F11000046E050E036E94EC77F001C007F002C098
:10F1200008F0096A0A6A000EECEC78F007C015F0E6
:10F1300008C016F009C017F00AC018F01EEC7CF0E9
:10F1400015C02EF016C02FF017C030F018C031F0E7
:10F15000EBEC7DF02EC047F02FC048F030C049F0F6
:10F1600031C04AF0D9EC77F047C053F048C054F0B2
:10F17000010E016E010E026E020EC6EC79F0020E57
:10F18000016E010E026E020EC6EC79F0030E016EE6
:10F19000010E026E020EC6EC79F0545009E11E0E0B
:10F1A000535CD8A0D6EF78F0D8EF78F0E1EF78F0A4
:10F1B000000E016E010E026E020EC6EC79F06CEFCD
:10F1C00078F0000E016E000E026E020EC6EC79F0B1
:10F1D0006CEF78F000EF00F00F6E0F50D8B4F3EF43
:10F1E00078F0F5EF78F017EF79F00ABEFCEF78F0E1
:10F1F000FAEF78F017EF79F007C00BF008C00CF0C9
:10F2000009C00DF00AC00EF00B1E0C1E0D1E0E1EC6
:10F210000B2A000E0C220D220E220BC011F00CC086
:10F2200012F00DC013F00EC014F01FEF79F007C0FC
:10F2300011F008C012F009C013F00AC014F0075012
:10F24000081009100A10D8A428EF79F02AEF79F0F5
:10F2500034EF79F0000E076E000E086E000E096E96
:10F26000000E0A6EC5EF79F0960E106E3EEF79F043
:10F27000102AD8901432133212321132000E1114A7
:10F280000B6E000E12140C6E000E13140D6EFE0E9B
:10F2900014140E6E0B500C100D100E10D8A453EF5A
:10F2A00079F055EF79F038EF79F063EF79F0102AC3
:10F2B000010E1126000E122213221422D8901432AD
:10F2C000133212321132000E11140B6E000E121492
:10F2D0000C6E000E13140D6EFF0E14140E6E0B50F8
:10F2E0000C100D100E10D8A478EF79F07AEF79F0A9
:10F2F00057EF79F082EF79F01006D8901136123678
:10F300001336143613BE87EF79F089EF79F091EF59
:10F3100079F0020E10608FEF79F091EF79F07CEFC9
:10F3200079F010B096EF79F098EF79F099EF79F0E5
:10F33000139ED890103210C00BF00C6A0D6A0E6A42
:10F340000BC00EF00D6A0C6A0B6A0B5011120C50B8
:10F3500012120D5013120E5014120F50D8B4B3EFF6
:10F3600079F0B5EF79F0BDEF79F00ABEBCEF79F036
:10F37000BAEF79F0BDEF79F0148E11C007F012C02A
:10F3800008F013C009F014C00AF01200056E050E53
:10F390000560CDEF79F0CFEF79F0D2EF7AF0080E7B
:10F3A0000160D5EF79F0D7EF79F0D2EF7AF002046F
:10F3B000D8A4DDEF79F0DFEF79F052EF7AF031EF9A
:10F3C0007AF001C003F0010E046E032AEAEF79F02F
:10F3D000D8900436032EE8EF79F004508012D2EF73
:10F3E0007AF001C003F0010E046E032AFAEF79F0FF
:10F3F000D8900436032EF8EF79F004508112D2EF42
:10F400007AF001C003F0010E046E032A0AEF7AF0CD
:10F41000D8900436032E08EF7AF004508212D2EF0F
:10F420007AF001C003F0010E046E032A1AEF7AF09D
:10F43000D8900436032E18EF7AF004508312D2EFDE
:10F440007AF001C003F0010E046E032A2AEF7AF06D
:10F45000D8900436032E28EF7AF004508412D2EFAD
:10F460007AF00550036E046A0450000AD8B43BEFEA
:10F470007AF0D2EF7AF00350000AD8B4E1EF79F0D5
:10F48000010AD8B4F1EF79F0030AD8B401EF7AF0A9
:10F49000010AD8B411EF7AF0070AD8B421EF7AF054
:10F4A000D2EF7AF00250D8A458EF7AF05AEF7AF0FF
:10F4B000D2EF7AF0B1EF7AF001C003F0010E046EE2
:10F4C000032A65EF7AF0D8900436032E63EF7AF0C2
:10F4D0000450FF0A8016D2EF7AF001C003F0010E4B
:10F4E000046E032A76EF7AF0D8900436032E74EF78
:10F4F0007AF00450FF0A8116D2EF7AF001C003F0CF
:10F50000010E046E032A87EF7AF0D8900436032E9A
:10F5100085EF7AF00450FF0A8216D2EF7AF001C02C
:10F5200003F0010E046E032A98EF7AF0D8900436A7
:10F53000032E96EF7AF00450FF0A8316D2EF7AF08A
:10F5400001C003F0010E046E032AA9EF7AF0D890EF
:10F550000436032EA7EF7AF00450FF0A8416D2EF88
:10F560007AF00550036E046A0450000AD8B4BBEF69
:10F570007AF0D2EF7AF00350000AD8B45CEF7AF058
:10F58000010AD8B46DEF7AF0030AD8B47EEF7AF0AE
:10F59000010AD8B48FEF7AF0070AD8B4A0EF7AF056
:10F5A000D2EF7AF012000A6E0150040DF350FC0FF6
:10F5B0000B6EFCEF7BF00250D8A4E1EF7AF0E3EFA2
:10F5C0007AF0F4EF7AF00BC003F0010E046E032A18
:10F5D000ECEF7AF0D8900436032EEAEF7AF004507C
:10F5E000FF0A9216FBEF7BF00204D8A4FAEF7AF040
:10F5F000FCEF7AF00CEF7BF00BC003F0010E046E11
:10F60000032A05EF7BF0D8900436032E03EF7BF03E
:10F6100004509212FBEF7BF00250D8A412EF7BF063
:10F6200014EF7BF025EF7BF00BC003F0010E046EAE
:10F63000032A1DEF7BF0D8900436032E1BEF7BF0DE
:10F640000450FF0A9316FBEF7BF00204D8A42BEFC3
:10F650007BF02DEF7BF03DEF7BF00BC003F0010E54
:10F66000046E032A36EF7BF0D8900436032E34EF75
:10F670007BF004509312FBEF7BF00250D8A443EFD1
:10F680007BF045EF7BF056EF7BF00BC003F0010EF3
:10F69000046E032A4EEF7BF0D8900436032E4CEF15
:10F6A0007BF00450FF0A9416FBEF7BF00204D8A411
:10F6B0005CEF7BF05EEF7BF06EEF7BF00BC003F056
:10F6C000010E046E032A67EF7BF0D8900436032EF8
:10F6D00065EF7BF004509412FBEF7BF00250D8A44E
:10F6E00074EF7BF076EF7BF087EF7BF00BC003F0DD
:10F6F000010E046E032A7FEF7BF0D8900436032EB0
:10F700007DEF7BF00450FF0A9516FBEF7BF00204BF
:10F71000D8A48DEF7BF08FEF7BF09FEF7BF00BC0D9
:10F7200003F0010E046E032A98EF7BF0D8900436A4
:10F73000032E96EF7BF004509512FBEF7BF0030E47
:10F740000B60A5EF7BF0A7EF7BF0FBEF7BF00250A7
:10F75000D8A4ADEF7BF0AFEF7BF0C0EF7BF00BC038
:10F7600003F0010E046E032AB8EF7BF0D890043644
:10F77000032EB6EF7BF00450FF0A9616FBEF7BF0EA
:10F780000204D8A4C6EF7BF0C8EF7BF0D8EF7BF083
:10F790000BC003F0010E046E032AD1EF7BF0D8906A
:10F7A0000436032ECFEF7BF004509612FBEF7BF074
:10F7B000FBEF7BF00A50036E046A0450000AD8B4D1
:10F7C000E4EF7BF0FBEF7BF00350000AD8B4DBEFF3
:10F7D0007AF0010AD8B40CEF7BF0030AD8B43DEFFD
:10F7E0007BF0010AD8B46EEF7BF0070AD8B49FEF24
:10F7F0007BF0FBEF7BF00B2A0B50036E046A015089
:10F80000056E066AD89005360636D8900536063657
:10F81000FF0E0524076EFF0E0620086E0350075CDE
:10F820000850800A096E0450800A0958D8B01BEFAE
:10F830007CF01DEF7CF0DAEF7BF012001850800BAB
:10F84000256E185018242C6E17AE29EF7CF02BEF84
:10F850007CF02CEF7CF02C802C50D8B432EF7CF074
:10F8600034EF7CF049EF7CF02C28D8A43AEF7CF000
:10F870003CEF7CF044EF7CF0000E156E000E166E2F
:10F88000000E176E000E186E178E000E186E51EFD8
:10F890007CF0000E156E000E166E000E176E000E38
:10F8A000186E1C50800B251A1C501C242D6E1BAE8C
:10F8B0005CEF7CF05EEF7CF05FEF7CF02D802D50F4
:10F8C000D8B465EF7CF067EF7CF07CEF7CF02D28FE
:10F8D000D8A46DEF7CF06FEF7CF077EF7CF0000E3A
:10F8E000196E000E1A6E000E1B6E000E1C6E1B8E23
:10F8F000000E1C6E84EF7CF0000E196E000E1A6E66
:10F90000000E1B6E000E1C6E19501A101B101C10DE
:10F91000D8A48DEF7CF08FEF7CF0A7EF7CF0000E89
:10F92000156E000E166E000E176E000E186E800E0D
:10F9300017127F0E18122550181215C015F016C098
:10F9400016F017C017F018C018F0EAEF7DF02C5031
:10F95000D8A4ADEF7CF0AFEF7CF0B9EF7CF0000EF7
:10F96000156E000E166E000E176E000E186EEAEF82
:10F970007DF02D502CC01DF01E6A1D5E000E1E5A1B
:10F980007F0E1D24266E000E1E20276E15C021F04E
:10F9900016C022F017C023F018C024F0000E156E18
:10F9A000000E166E000E176E000E186E000E286EFA
:10F9B000000E296E000E2A6E000E2B6E000E2D6EAC
:10F9C0001AEF7DF02D50D8B4E8EF7CF0EAEF7CF030
:10F9D00001EF7DF0D8902136223623362436D89098
:10F9E00015361636173618362BAEF9EF7CF0FBEFCE
:10F9F0007CF0FCEF7CF01580D890283629362A362A
:10FA00002B361950215C1A5022581B5023581C5079
:10FA10002458D8A00EEF7DF010EF7DF019EF7DF0A7
:10FA20002B8C1950215E1A50225A1B50235A1C50FD
:10FA3000245A2D2A190E2D6420EF7DF022EF7DF03F
:10FA4000E2EF7CF02150221023102410D8B42BEFC9
:10FA50007DF02DEF7DF045EF7DF0288045EF7DF0C6
:10FA6000D89015361636173618362BAE3AEF7DF08D
:10FA70003CEF7DF03DEF7DF01580D890283629369B
:10FA80002A362B362606D8A0270617AE4AEF7DF079
:10FA90004CEF7DF030EF7DF0000E2D6E2BAE53EF6E
:10FAA0007DF055EF7DF079EF7DF0FF0E28141D6E8F
:10FAB000FF0E29141E6EFF0E2A141F6E7F0E2B14CC
:10FAC000206E1D501E101F102010D8B46AEF7DF05C
:10FAD0006CEF7DF070EF7DF0010E2D6E79EF7DF013
:10FAE00015A075EF7DF077EF7DF079EF7DF06CEF8D
:10FAF0007DF02D50D8B47FEF7DF081EF7DF0A5EF44
:10FB00007DF0010E1526000E16221722182218A0CD
:10FB10008CEF7DF08EEF7DF0A5EF7DF015C01DF030
:10FB200016C01EF017C01FF018C020F0203420327D
:10FB30001F321E321D321DC015F01EC016F01FC030
:10FB400017F020C018F0264A272A27BEB0EF7DF014
:10FB5000275008E12628D8A0B0EF7DF0B2EF7DF065
:10FB6000BDEF7DF0000E276E2668000E156E000EAC
:10FB7000166E000E176E000E186E27BECAEF7DF0CF
:10FB8000275006E12604D8B0C8EF7DF0CAEF7DF01B
:10FB9000D8EF7DF0000E276E000E266E000E156E5B
:10FBA000000E166E000E176E000E186E000E256EFB
:10FBB00026C02CF02CA0DFEF7DF0E1EF7DF0E4EF2C
:10FBC0007DF0178EE5EF7DF0179ED8902C30186EE3
:10FBD0009BEF7CF012003150800B3A6E3150312493
:10FBE000406E30AEF6EF7DF0F8EF7DF0F9EF7DF08E
:10FBF00040804050D8B4FFEF7DF001EF7EF014EF6D
:10FC00007EF04028D8A407EF7EF009EF7EF011EFD8
:10FC10007EF0000E2E6E000E2F6E000E306E000E67
:10FC2000316E308E1CEF7EF0000E2E6E000E2F6EA9
:10FC3000000E306E000E316E3550800B3A1A355082
:10FC400035243F6E34AE27EF7EF029EF7EF02AEFA9
:10FC50007EF03F803F50D8B430EF7EF032EF7EF040
:10FC600045EF7EF03F28D8A438EF7EF03AEF7EF0E3
:10FC700042EF7EF0000E326E000E336E000E346ED8
:10FC8000000E356E348E4DEF7EF0000E326E000E9B
:10FC9000336E000E346E000E356E3F50D8B453EF05
:10FCA0007EF055EF7EF05DEF7EF04050D8A45BEF24
:10FCB0007EF05DEF7EF067EF7EF0000E2E6E000EA0
:10FCC0002F6E000E306E000E316EFFEF7FF034505D
:10FCD0002E02F3CF45F0F4CF46F045503B6E3C6A20
:10FCE0003D6A3E6A4650416E426A436A446A3350F6
:10FCF0002F02F3CF45F0F4CF46F045503B26000EDF
:10FD00003C223D223E2246504126000E4222432202
:10FD1000442232503002F3CF45F0F4CF46F0455044
:10FD20003B26000E3C223D223E2246504126000E3C
:10FD30004222432244223DC03EF03CC03DF03BC045
:10FD40003CF03B6A32502F02F3CF45F0F4CF46F03F
:10FD500045503B2646503C22000E3D22000E3E22DE
:10FD600033502E02F3CF45F0F4CF46F045503B26FA
:10FD700046503C22000E3D22000E3E223DC03EF089
:10FD80003CC03DF03BC03CF03B6A32502E02F3CF0A
:10FD900045F0F4CF46F045503B2646503C22000E3D
:10FDA0003D22000E3E2234502F02F3CF45F0F4CF17
:10FDB00046F04550412646504222000E4322000E96
:10FDC000442233503002F3CF45F0F4CF46F0455093
:10FDD000412646504222000E4322000E4422345057
:10FDE0003002F3CF45F0F4CF46F04550366E465022
:10FDF000376E386A396A38C039F037C038F036C0E3
:10FE000037F0366A36504126375042223850432266
:10FE1000395044223BC036F03CC037F03DC038F08A
:10FE20003EC039F0190E1AEF7FF0D89039323832CF
:10FE300037323632E82E15EF7FF0365041263750F4
:10FE4000422238504322395044223DC03EF03CC04B
:10FE50003DF03BC03CF03B6A3F5040C036F0376A53
:10FE60003626000E3722820E3624456EFF0E3720CE
:10FE7000466E50EF7FF0D8904136423643364436D6
:10FE80003EAE45EF7FF047EF7FF048EF7FF04180D7
:10FE9000D8903B363C363D363E364506D8A0460621
:10FEA00043AE55EF7FF057EF7FF03BEF7FF0000E52
:10FEB0003F6E3EAE5EEF7FF060EF7FF084EF7FF04D
:10FEC000FF0E3B14366EFF0E3C14376EFF0E3D14D2
:10FED000386E7F0E3E14396E365037103810391098
:10FEE000D8B475EF7FF077EF7FF07BEF7FF0010EF6
:10FEF0003F6E84EF7FF041A080EF7FF082EF7FF0D4
:10FF000084EF7FF077EF7FF03F50D8B48AEF7FF037
:10FF10008CEF7FF0B0EF7FF0010E4126000E422201
:10FF20004322442244A097EF7FF099EF7FF0B0EF97
:10FF30007FF041C036F042C037F043C038F044C0D3
:10FF400039F03934393238323732363236C041F04E
:10FF500037C042F038C043F039C044F0454A462A21
:10FF600046BEBBEF7FF0465008E14528D8A0BBEF66
:10FF70007FF0BDEF7FF0C7EF7FF0000E416E000E07
:10FF8000426E800E436E7F0E446EF5EF7FF046BEEC
:10FF9000D4EF7FF0465006E14504D8B0D2EF7FF0B1
:10FFA000D4EF7FF0E0EF7FF0000E416E000E426E66
:10FFB000000E436E000E446E000E3A6EF5EF7FF0B9
:10FFC00045C040F0FF0E4116FF0E42167F0E43164D
:10FFD000000E441640A0EFEF7FF0F1EF7FF0F2EF5C
:10FFE0007FF0438ED8904030446E3A50441241C066
:10FFF0002EF042C02FF043C030F044C031F0120068
:020000040020DA
:08000000FFFFFFFFFFFFFFFF00
:020000040030CA
:0E000000FF021F1EFF8081FF0FC00FE00F40A8
:00000001FF
